{
  "contractName": "AuctionPlatform",
  "abi": [
    {
      "constant": true,
      "inputs": [],
      "name": "Index",
      "outputs": [
        {
          "name": "",
          "type": "uint256"
        }
      ],
      "payable": false,
      "stateMutability": "view",
      "type": "function"
    },
    {
      "inputs": [],
      "payable": false,
      "stateMutability": "nonpayable",
      "type": "constructor"
    },
    {
      "constant": false,
      "inputs": [
        {
          "name": "_name",
          "type": "string"
        },
        {
          "name": "_StartTime",
          "type": "uint256"
        },
        {
          "name": "_EndTime",
          "type": "uint256"
        },
        {
          "name": "_StartPrice",
          "type": "uint256"
        }
      ],
      "name": "AddNFTToStore",
      "outputs": [],
      "payable": false,
      "stateMutability": "nonpayable",
      "type": "function"
    },
    {
      "constant": true,
      "inputs": [
        {
          "name": "_nftId",
          "type": "uint256"
        }
      ],
      "name": "GetNFT",
      "outputs": [
        {
          "name": "",
          "type": "uint256"
        },
        {
          "name": "",
          "type": "string"
        },
        {
          "name": "",
          "type": "uint256"
        },
        {
          "name": "",
          "type": "uint256"
        },
        {
          "name": "",
          "type": "uint256"
        },
        {
          "name": "",
          "type": "uint8"
        }
      ],
      "payable": false,
      "stateMutability": "view",
      "type": "function"
    },
    {
      "constant": false,
      "inputs": [
        {
          "name": "_nftId",
          "type": "uint256"
        },
        {
          "name": "_bid",
          "type": "bytes32"
        }
      ],
      "name": "bid",
      "outputs": [
        {
          "name": "",
          "type": "bool"
        }
      ],
      "payable": true,
      "stateMutability": "payable",
      "type": "function"
    },
    {
      "constant": false,
      "inputs": [
        {
          "name": "_nftId",
          "type": "uint256"
        },
        {
          "name": "_amount",
          "type": "string"
        },
        {
          "name": "_secret",
          "type": "string"
        }
      ],
      "name": "revealBid",
      "outputs": [],
      "payable": false,
      "stateMutability": "nonpayable",
      "type": "function"
    },
    {
      "constant": true,
      "inputs": [
        {
          "name": "_nftId",
          "type": "uint256"
        }
      ],
      "name": "HighestBidderInfo",
      "outputs": [
        {
          "name": "",
          "type": "address"
        },
        {
          "name": "",
          "type": "uint256"
        }
      ],
      "payable": false,
      "stateMutability": "view",
      "type": "function"
    }
  ],
  "bytecode": "0x608060405234801561001057600080fd5b50600080819055506116d3806100276000396000f300608060405260043610610078576000357c0100000000000000000000000000000000000000000000000000000000900463ffffffff1680633fdfab391461007d5780635ace4d96146100f15780636c0bbcff1461011c578063debe973d146101f3578063ea1591bb1461027a578063f85f196e146102c0575b600080fd5b34801561008957600080fd5b506100a860048036038101908080359060200190929190505050610379565b604051808373ffffffffffffffffffffffffffffffffffffffff1673ffffffffffffffffffffffffffffffffffffffff1681526020018281526020019250505060405180910390f35b3480156100fd57600080fd5b50610106610581565b6040518082815260200191505060405180910390f35b34801561012857600080fd5b5061014760048036038101908080359060200190929190505050610587565b604051808781526020018060200186815260200185815260200184815260200183600281111561017357fe5b60ff168152602001828103825287818151815260200191508051906020019080838360005b838110156101b3578082015181840152602081019050610198565b50505050905090810190601f1680156101e05780820380516001836020036101000a031916815260200191505b5097505050505050505060405180910390f35b3480156101ff57600080fd5b50610278600480360381019080803590602001908201803590602001908080601f01602080910402602001604051908101604052809392919081815260200183838082843782019150505050505091929192908035906020019092919080359060200190929190803590602001909291905050506107b9565b005b6102a6600480360381019080803590602001909291908035600019169060200190929190505050610a3f565b604051808215151515815260200191505060405180910390f35b3480156102cc57600080fd5b5061037760048036038101908080359060200190929190803590602001908201803590602001908080601f0160208091040260200160405190810160405280939291908181526020018383808284378201915050505050509192919290803590602001908201803590602001908080601f0160208091040260200160405190810160405280939291908181526020018383808284378201915050505050509192919290505050610d7c565b005b60008061038461155a565b600260006001600087815260200190815260200160002060009054906101000a900473ffffffffffffffffffffffffffffffffffffffff1673ffffffffffffffffffffffffffffffffffffffff1673ffffffffffffffffffffffffffffffffffffffff1681526020019081526020016000206000858152602001908152602001600020610100604051908101604052908160008201548152602001600182018054600181600116156101000203166002900480601f0160208091040260200160405190810160405280929190818152602001828054600181600116156101000203166002900480156104b75780601f1061048c576101008083540402835291602001916104b7565b820191906000526020600020905b81548152906001019060200180831161049a57829003601f168201915b505050505081526020016002820154815260200160038201548152602001600482015481526020016005820160009054906101000a900473ffffffffffffffffffffffffffffffffffffffff1673ffffffffffffffffffffffffffffffffffffffff1673ffffffffffffffffffffffffffffffffffffffff168152602001600682015481526020016007820160009054906101000a900460ff16600281111561055c57fe5b600281111561056757fe5b8152505090508060a001518160c001519250925050915091565b60005481565b6000606060008060008061059961155a565b60026000600160008b815260200190815260200160002060009054906101000a900473ffffffffffffffffffffffffffffffffffffffff1673ffffffffffffffffffffffffffffffffffffffff1673ffffffffffffffffffffffffffffffffffffffff1681526020019081526020016000206000898152602001908152602001600020610100604051908101604052908160008201548152602001600182018054600181600116156101000203166002900480601f0160208091040260200160405190810160405280929190818152602001828054600181600116156101000203166002900480156106cc5780601f106106a1576101008083540402835291602001916106cc565b820191906000526020600020905b8154815290600101906020018083116106af57829003601f168201915b505050505081526020016002820154815260200160038201548152602001600482015481526020016005820160009054906101000a900473ffffffffffffffffffffffffffffffffffffffff1673ffffffffffffffffffffffffffffffffffffffff1673ffffffffffffffffffffffffffffffffffffffff168152602001600682015481526020016007820160009054906101000a900460ff16600281111561077157fe5b600281111561077c57fe5b815250509050806000015181602001518260400151836060015184608001518560e001518494509650965096509650965096505091939550919395565b6107c161155a565b828410151561085e576040517f08c379a000000000000000000000000000000000000000000000000000000000815260040180806020018281038252602d8152602001807f5374617274696e6774696d652073686f756c64206e6f74206265206c6174657281526020017f207468616e20656e6474696d650000000000000000000000000000000000000081525060400191505060405180910390fd5b60016000808282540192505081905550610100604051908101604052806000548152602001868152602001858152602001848152602001838152602001600073ffffffffffffffffffffffffffffffffffffffff16815260200160008152602001600060028111156108cc57fe5b815250905080600260003373ffffffffffffffffffffffffffffffffffffffff1673ffffffffffffffffffffffffffffffffffffffff1681526020019081526020016000206000805481526020019081526020016000206000820151816000015560208201518160010190805190602001906109499291906115c1565b5060408201518160020155606082015181600301556080820151816004015560a08201518160050160006101000a81548173ffffffffffffffffffffffffffffffffffffffff021916908373ffffffffffffffffffffffffffffffffffffffff16021790555060c0820151816006015560e08201518160070160006101000a81548160ff021916908360028111156109dd57fe5b021790555090505033600160008054815260200190815260200160002060006101000a81548173ffffffffffffffffffffffffffffffffffffffff021916908373ffffffffffffffffffffffffffffffffffffffff1602179055505050505050565b600080600260006001600087815260200190815260200160002060009054906101000a900473ffffffffffffffffffffffffffffffffffffffff1673ffffffffffffffffffffffffffffffffffffffff1673ffffffffffffffffffffffffffffffffffffffff16815260200190815260200160002060008581526020019081526020016000209050806002015442111515610b42576040517f08c379a000000000000000000000000000000000000000000000000000000000815260040180806020018281038252601f8152602001807f5468652061756374696f6e20686173206e6f742073746172746564207965740081525060200191505060405180910390fd5b806003015442101515610bbd576040517f08c379a00000000000000000000000000000000000000000000000000000000081526004018080602001828103825260208152602001807f5468652061756374696f6e206973206e6f7420617661696c61626c65206e6f7781525060200191505060405180910390fd5b806004015434111515610c5e576040517f08c379a000000000000000000000000000000000000000000000000000000000815260040180806020018281038252602a8152602001807f596f7572206f66666572206973206c6f776572207468616e207468652073746181526020017f7274696e6770726963650000000000000000000000000000000000000000000081525060400191505060405180910390fd5b6080604051908101604052803373ffffffffffffffffffffffffffffffffffffffff168152602001858152602001348152602001600015158152508160080160003373ffffffffffffffffffffffffffffffffffffffff1673ffffffffffffffffffffffffffffffffffffffff1681526020019081526020016000206000856000191660001916815260200190815260200160002060008201518160000160006101000a81548173ffffffffffffffffffffffffffffffffffffffff021916908373ffffffffffffffffffffffffffffffffffffffff160217905550602082015181600101556040820151816002015560608201518160030160006101000a81548160ff021916908315150217905550905050600191505092915050565b600080610d87611641565b600080600060026000600160008c815260200190815260200160002060009054906101000a900473ffffffffffffffffffffffffffffffffffffffff1673ffffffffffffffffffffffffffffffffffffffff1673ffffffffffffffffffffffffffffffffffffffff16815260200190815260200160002060008a81526020019081526020016000209550856003015442111515610e2357600080fd5b87876040518083805190602001908083835b602083101515610e5a5780518252602082019150602081019050602083039250610e35565b6001836020036101000a03801982511681845116808217855250505050505090500182805190602001908083835b602083101515610ead5780518252602082019150602081019050602083039250610e88565b6001836020036101000a03801982511681845116808217855250505050505090500192505050604051809103902094508560080160003373ffffffffffffffffffffffffffffffffffffffff1673ffffffffffffffffffffffffffffffffffffffff16815260200190815260200160002060008660001916600019168152602001908152602001600020608060405190810160405290816000820160009054906101000a900473ffffffffffffffffffffffffffffffffffffffff1673ffffffffffffffffffffffffffffffffffffffff1673ffffffffffffffffffffffffffffffffffffffff16815260200160018201548152602001600282015481526020016003820160009054906101000a900460ff16151515158152505093506000846000015173ffffffffffffffffffffffffffffffffffffffff1611151561105c576040517f08c379a00000000000000000000000000000000000000000000000000000000081526004018080602001828103825260138152602001807f4269646465722073686f756c642065786973740000000000000000000000000081525060200191505060405180910390fd5b60001515846060015115151415156110dc576040517f08c379a000000000000000000000000000000000000000000000000000000000815260040180806020018281038252601a8152602001807f6269642073686f756c64206e6f742062652072657665616c656400000000000081525060200191505060405180910390fd5b6110e588611350565b915081846040015110156110ff578360400151925061127e565b60008660050160009054906101000a900473ffffffffffffffffffffffffffffffffffffffff1673ffffffffffffffffffffffffffffffffffffffff16141561119c57338660050160006101000a81548173ffffffffffffffffffffffffffffffffffffffff021916908373ffffffffffffffffffffffffffffffffffffffff16021790555081866006018190555081846040015103925061127d565b856006015482111561127857856006015490508560050160009054906101000a900473ffffffffffffffffffffffffffffffffffffffff1673ffffffffffffffffffffffffffffffffffffffff166108fc87600601549081150290604051600060405180830381858888f1935050505015801561121d573d6000803e3d6000fd5b50818660060181905550338660050160006101000a81548173ffffffffffffffffffffffffffffffffffffffff021916908373ffffffffffffffffffffffffffffffffffffffff16021790555081846040015103925061127c565b8192505b5b5b60008311156112cf573373ffffffffffffffffffffffffffffffffffffffff166108fc849081150290604051600060405180830381858888f193505050501580156112cd573d6000803e3d6000fd5b505b60018660080160003373ffffffffffffffffffffffffffffffffffffffff1673ffffffffffffffffffffffffffffffffffffffff1681526020019081526020016000206000876000191660001916815260200190815260200160002060030160006101000a81548160ff021916908315150217905550505050505050505050565b6000606060008084925060009150600090505b825181101561154f5760307f010000000000000000000000000000000000000000000000000000000000000002838281518110151561139e57fe5b9060200101517f010000000000000000000000000000000000000000000000000000000000000090047f0100000000000000000000000000000000000000000000000000000000000000027effffffffffffffffffffffffffffffffffffffffffffffffffffffffffffff1916101580156114b6575060397f010000000000000000000000000000000000000000000000000000000000000002838281518110151561144657fe5b9060200101517f010000000000000000000000000000000000000000000000000000000000000090047f0100000000000000000000000000000000000000000000000000000000000000027effffffffffffffffffffffffffffffffffffffffffffffffffffffffffffff191611155b1561154257603083828151811015156114cb57fe5b9060200101517f010000000000000000000000000000000000000000000000000000000000000090047f0100000000000000000000000000000000000000000000000000000000000000027f01000000000000000000000000000000000000000000000000000000000000009004600a8402010391505b8080600101915050611363565b819350505050919050565b610100604051908101604052806000815260200160608152602001600081526020016000815260200160008152602001600073ffffffffffffffffffffffffffffffffffffffff16815260200160008152602001600060028111156115bb57fe5b81525090565b828054600181600116156101000203166002900490600052602060002090601f016020900481019282601f1061160257805160ff1916838001178555611630565b82800160010185558215611630579182015b8281111561162f578251825591602001919060010190611614565b5b50905061163d9190611682565b5090565b608060405190810160405280600073ffffffffffffffffffffffffffffffffffffffff16815260200160008152602001600081526020016000151581525090565b6116a491905b808211156116a0576000816000905550600101611688565b5090565b905600a165627a7a723058207bb6d5c6d1bb816ba153b97c49878f3d79ffd38af7207279758be8c3410274e30029",
  "source": "pragma solidity ^0.4.24;\n\ncontract AuctionPlatform{\n    enum NFTStatus{Open, Sold, Unsold}  //商品状态\n    uint public Index;  //计数器\n    mapping(uint => address) NFTIdInStore;  //商品ID与地址的对应关系\n    mapping(address => mapping(uint => NFT)) Stores;  //地址与产品的对应关系\n//产品结构体\n    struct NFT{\n        uint id;\n        string name;\n        uint StartTime;\n        uint EndTime;\n        uint StartPrice;\n        address HighestBidder;\n        uint HighestBid;\n        NFTStatus status;\n        mapping(address => mapping(bytes32 => Bid)) bids;  //通过Hash值储存NFT信息\n    }\n//初始化计数器\n    constructor() {\n        Index = 0;\n    }\n//竞价结构体\n    struct Bid{\n        address Bidder;\n        uint NFTId;\n        uint Value;\n        bool revealed;  //是否揭标\n    }\n    function AddNFTToStore(string memory _name, uint _StartTime, uint _EndTime ,uint _StartPrice) public  {\n        require(_StartTime < _EndTime,\"Startingtime should not be later than endtime\");\n        Index += 1;\n        NFT memory nft = NFT(Index, _name, _StartTime, _EndTime, _StartPrice, 0, 0, NFTStatus.Open);\n        Stores[msg.sender][Index] = nft;\n        NFTIdInStore[Index] = msg.sender;   \n    }\n    \n    function GetNFT(uint _nftId)  public view returns (uint, string memory, uint, uint, uint, NFTStatus)  {\n        NFT memory nft = Stores[NFTIdInStore[_nftId]][_nftId];\n        return (nft.id, nft.name, nft.StartTime, nft.EndTime, nft.StartPrice, nft.status);\n    }\n\n    function bid(uint _nftId, bytes32 _bid) public payable returns (bool){\n        NFT storage nft = Stores[NFTIdInStore[_nftId]][_nftId];\n        require(now > nft.StartTime, \"The auction has not started yet\");\n        require(now < nft.EndTime, \"The auction is not available now\");\n        require(msg.value > nft.StartPrice, \"Your offer is lower than the startingprice\");\n        //require(nft.bids[msg.sender][_bid].bidder == 0);\n        nft.bids[msg.sender][_bid] = Bid(msg.sender, _nftId, msg.value, false);\n        return true;\n    }\n\n    function revealBid(uint _nftId, string memory _amount, string memory _secret) public{\n        NFT storage nft = Stores[NFTIdInStore[_nftId]][_nftId];\n        require(now > nft.EndTime);\n        bytes32 sealedBid = sha3(_amount, _secret);\n        Bid memory bidinfo = nft.bids[msg.sender][sealedBid];\n        require(bidinfo.Bidder > 0, \"Bidder should exist\");\n        require(bidinfo.revealed == false, \"bid should not be revealed\");\n        uint refund;\n        uint amount = StringToUint(_amount);\n        if(bidinfo.Value < amount){\n            refund = bidinfo.Value;\n        }\n        else{\n            if(address(nft.HighestBidder) == 0){\n                nft.HighestBidder = msg.sender;\n                nft.HighestBid = amount;\n                refund = bidinfo.Value - amount;\n            }\n            else{\n                if(amount > nft.HighestBid){\n                    uint temp;\n                    temp = nft.HighestBid;\n                    nft.HighestBidder.transfer(nft.HighestBid);\n                    nft.HighestBid = amount;\n                    nft.HighestBidder = msg.sender;\n                    refund = bidinfo.Value - amount;\n            }\n                else{\n                    refund = amount;\n                }\n            }\n        }\n        if(refund > 0){\n            msg.sender.transfer(refund);\n        }\n        nft.bids[msg.sender][sealedBid].revealed = true;\n    }\n\n    function StringToUint(string memory s) private pure returns(uint){\n        bytes memory temp = bytes(s);\n        uint result = 0;\n        for(uint i = 0; i < temp.length; i++){\n            if(temp[i] >= 48 && temp[i] <= 57){\n                result = result * 10 + uint(temp[i]) - 48;\n            }\n        }\n        return result;\n    }\n\n    function HighestBidderInfo(uint _nftId)public view returns(address,uint){\n        NFT memory nft = Stores[NFTIdInStore[_nftId]][_nftId];\n        return(nft.HighestBidder, nft.HighestBid);\n    }\n}\n",
  "sourcePath": "C:\\Users\\86198\\Desktop\\BlockChain\\eth\\contracts\\Migrations.sol",
  "compiler": {
    "name": "solc",
    "version": "0.4.24+commit.e67f0147.Emscripten.clang"
  },
  "schemaVersion": "3.4.3",
  "updatedAt": "2021-11-05T16:32:14.325Z",
  "networkType": "ethereum",
  "devdoc": {
    "methods": {}
  },
  "userdoc": {
    "methods": {}
  }
}